:020000040000FA
:1000000060D00720E1000000E9000000EB000000E4
:10001000ED000000EF000000F10000000000000013
:10002000000000000000000000000000F3000000DD
:10003000F50000000000000033020000BD1C0000BD
:10004000FB000000FB000000FB000000FB000000C4
:10005000FB000000013B0000FB000000FB00000073
:10006000FB000000FB000000FB000000FB000000A4
:10007000FB000000FB000000FB000000FB00000094
:10008000FB000000FB000000FB000000FB00000084
:10009000FB000000FB000000FB000000FB00000074
:1000A000FB000000FB000000FB000000FB00000064
:1000B000FB000000FB000000FB000000FB00000054
:1000C000FB000000FB000000FB000000DFF80CD08C
:1000D00000F082F800480047393D000060D007205A
:1000E0000648804706480047FEE7FEE7FEE7FEE7D2
:1000F000FEE7FEE7FEE7FEE7FEE7FEE7C1390000A8
:10010000CD00000072B6704762B67047EFF3108002
:1001100072B6704780F31088704730BF704720BFB9
:100120007047B0FA80F0704790FAA0F0B0FA80F013
:10013000704790FAA0F070472DE9F05F0546002067
:1001400092469B4688460646814640241BE0284648
:1001500041464746224600F02FF853465A46C01AF9
:10016000914110D311461846224600F016F82D1A78
:1001700067EB01084F4622460120002100F00DF8F0
:1001800017EB00094E41201EA4F10104DFDC4846B4
:1001900031462A464346BDE8F09F202A04DB203A38
:1001A00000FA02F1002070479140C2F1200320FACA
:1001B00003F3194390407047202A04DB203A21FAC8
:1001C00002F00021704721FA02F3D040C2F1200270
:1001D0009140084319467047064C074D06E0E06819
:1001E00040F0010394E8070098471034AC42F6D37E
:1001F000FFF770FFB0450000E04500001D484FF0DC
:10020000FF010170002080F309881B48016881F319
:1002100008881A484FF08051016062B6FEE717481F
:100220004FF080510160704714484FF080510160D9
:10023000704772B6EFF3098028B1203880E8F00FDC
:100240000F490968086000B50E4880475DF804EB67
:100250000D480E490A78027009480D490A68026083
:10026000106890E8F00F203080F309884EF0040EFB
:1002700062B6704722ED00E0E0C0072004ED00E028
:10028000D8C00720011B000066C0072067C00720F8
:10029000DCC0072001290AD10B4A12680B4B00EA87
:1002A000030342EA03020A4BC3F8C4200AE049B937
:1002B000054A1268054B23EA000302EA0302044BD5
:1002C000C3F8C42070470000C4C00F40DEF7EFEF52
:1002D00000C00F400146202903D20A46054B18688A
:1002E00003E0A1F12002044B186820FA02F303F0A6
:1002F00003007047A8C10F40ACC10F40FFFFFFFFD4
:10030000002800D17047002900D17047002A00D191
:1003100070472DE9F81F00F0030301F00304A34226
:1003200011D1C3F1040303F00303012B1DD3012AF0
:1003300000D2F2E011F8014B00F8014BA3F10103E8
:10034000A2F10102F1E700F0010301F00104A34270
:1003500000D094E0012B44D311F8014B00F8014B7D
:10036000A3F10103A2F10102F4E7B2F5B47F26D3B1
:10037000B1E8F81FA0E8F81FB1E8F81FA0E8F81FDF
:10038000B1E8F81FA0E8F81FB1E8F81FA0E8F81FCF
:10039000B1E8F81FA0E8F81FB1E8F81FA0E8F81FBF
:1003A000B1E8F81FA0E8F81FB1E8F81FA0E8F81FAF
:1003B000B1E8F81FA0E8F81FA2F5B472D5E7282A23
:1003C00006D3B1E8F81FA0E8F81FA2F12802F6E76B
:1003D000042A06D351F8043B40F8043BA2F104027E
:1003E000F6E7202A42D331F8023B20F8023B31F8ED
:1003F000023B20F8023B31F8023B20F8023B31F887
:10040000023B20F8023B31F8023B20F8023B31F876
:10041000023B20F8023B31F8023B20F8023B31F866
:10042000023B20F8023B31F8023B20F8023B31F856
:10043000023B20F8023B31F8023B20F8023B31F846
:10044000023B20F8023B31F8023B20F8023B31F836
:10045000023B20F8023B31F8023B20F8023B31F826
:10046000023B20F8023BA2F12002BAE7022A06D39F
:1004700031F8023B20F8023BA2F10202F6E7102A13
:1004800042D311F8013B00F8013B11F8013B00F8A1
:10049000013B11F8013B00F8013B11F8013B00F86A
:1004A000013B11F8013B00F8013B11F8013B00F85A
:1004B000013B11F8013B00F8013B11F8013B00F84A
:1004C000013B11F8013B00F8013B11F8013B00F83A
:1004D000013B11F8013B00F8013B11F8013B00F82A
:1004E000013B11F8013B00F8013B11F8013B00F81A
:1004F000013B11F8013B00F8013B11F8013B00F80A
:10050000013BA2F11002BAE7012A06D311F8013B20
:1005100000F8013BA2F10102F6E7BDE8F81F7047C1
:1005200070B506460D4804683046FFF7D3FE054611
:1005300035B1012D06D0022D06D0032D08D105E0DE
:10054000042505E0012503E0022501E0082500BFA0
:1005500000BFB4FBF5F4204670BD000000C00720CA
:100560004FF0E02080697047114812481248134844
:100570001348144814481548154816481648174893
:10058000174818481848194819481A481A481B4863
:100590001B481C481C481D481D481E481E481F4833
:1005A0001F482048204821482148224800BF704762
:1005B00040440000A0430000A4430000A843000002
:1005C000AC430000CC430000D0430000D443000003
:1005D000D8430000DC430000E0430000E443000097
:1005E000E8430000EC430000F0430000F443000047
:1005F000F8430000FC4300000044000004440000F5
:10060000084400000C4400001044000014440000A2
:10061000184400001C440000204400002444000052
:10062000284400002C440000304400003444000002
:10063000384400003C44000010B50348006810B185
:1006400001480068804710BD38C0072070B50446D7
:1006500000F0BCF80020454908704549087045493C
:100660000870454908604549086045490870454992
:100670000870454908704549086045490860454982
:10068000086045490870454800680A21B0FBF1F050
:10069000434908604348006858B14348056845B17C
:1006A0004048066803E0761E002028602D1D002EBD
:1006B000F9D100203D4908603D4908603D49086086
:1006C0003D4908603D4908603D4908603D49086072
:1006D0003D49087001F036FF01F070FF204601F03F
:1006E000F5FB208800B170BD204601F055FC208844
:1006F00000B1F8E7204601F077FC208800B1F2E76E
:10070000204601F06BFD208800B1ECE7204601F0A7
:1007100049FF208800B1E6E7204602F0B1F82088C2
:1007200000B1E0E7204602F05BFB208800B1DAE789
:10073000204601F0F9FB208800B1D4E7204602F002
:100740003BFF208800B1CEE7204602F0AFFA2088B8
:1007500000B1C8E7204602F08BFF208800B1C2E755
:1007600001F0E0FAFFF700FF00BFBCE74CC0072034
:100770004DC0072080C00720D8C00720DCC007205C
:1007800066C0072067C0072068C0072074C0072024
:1007900078C007207CC0072088C0072000440000E4
:1007A00084C00720D0430000CC4300002CC00720A9
:1007B00030C0072034C0072038C007203CC00720C5
:1007C00040C0072044C00720B6C007200A4A11686D
:1007D000002002E0002204C1401C084A1268904236
:1007E000F8D3054A1268054B1B6802EB8302121FFF
:1007F000034B1A6070470000CC430000D043000058
:10080000E0C0072008480078012800D0704707485A
:100810000078FA2800DBF9E704480078401C034917
:10082000087000BFF2E700004DC007204CC0072051
:1008300010B500242D480078012800D010BD00BF5D
:10084000FFF764FC044600BF2948007828B900BFC0
:100850002046FFF75FFC00BFF0E725480078401E08
:100860002349087008460078002805DD00BF2046AF
:10087000FFF750FC00BFE1E71E480078002805DDC7
:1008800000BF2046FFF746FC00BFD7E701F046FE59
:10089000194908700846007800EB4000174951F8E4
:1008A0002000174908600846006816490968884210
:1008B00005D100BF2046FFF72DFC00BFBEE7104862
:1008C0000068D0F89000401C0D490968C1F89000FC
:1008D0000D480068401C0C490860FFF7A5FC00BFEC
:1008E0002046FFF717FC00BF00BFA7E74DC0072059
:1008F0004CC0072080C0072067C0072090CA07208F
:10090000DCC00720D8C00720ACC007202DE9F0418B
:1009100004460E46154600271B480078002804DDD3
:1009200042F6E1602880BDE8F0811CB945F6C3506D
:100930002880F8E700BF00BFFFF7E8FB074600BFCD
:1009400000BF1248206066600020206284F8250005
:10095000A062202084F8240004F1080001F0F5FCD6
:10096000204601F023FC0A480088401C0849088002
:1009700000BF00BF3846FFF7CDFB00BF00BF00201F
:10098000288000BFCFE700004CC007204D555458C9
:1009900064C007202DE9F04788B005468946904697
:1009A0001C46109E4FF0000A8A480078002805DD9A
:1009B00046F2AE10308008B0BDE8F0871DB945F6AC
:1009C000C3503080F7E7B8F1000F03D0B8F5004FFF
:1009D00002D100E000BF03E045F625603080EAE781
:1009E00000BF7D492868884203D045F6C450308056
:1009F000E1E70CB10020206000BF00BFFFF786FBDD
:100A0000824600BF00BF95F82500C0B97348006852
:100A100028627248006890F8370085F824000120A9
:100A200085F825000CB1A86A206000BF00BF5046C1
:100A3000FFF770FB00BF00BF00203080BBE76749B5
:100A4000286A0968884212D195F82500401C85F86B
:100A500025000CB1A86A206000BF00BF5046FFF718
:100A600059FB00BF00BF45F282703080A3E718F445
:100A7000004F0AD000BF00BF5046FFF74BFB00BF3E
:100A800000BF46F2B010308095E755480078002846
:100A90000ADD00BF00BF5046FFF73CFB00BF00BFB0
:100AA00046F66350308086E72F6A97F837004B4947
:100AB000096891F8371088423ADD97F8360008281F
:100AC0002AD2DFE800F004151E1F17162021384631
:100AD00001F0FCFD4148006890F8370087F83700C6
:100AE00097F8370001F03AFD384601F08FFD1EE01F
:100AF00000BF00BF3948006890F8370087F837001A
:100B000015E000BF00BF00BF3448006890F8371000
:100B1000384601F0F7FB0AE000BF00BF5046FFF780
:100B2000F9FA00BF00BF46F62D60308043E700BFF2
:100B30004B4604222946684601F05CFB00BF00BF1B
:100B40005046FFF7E7FA00BF00BF00F005F900BF0D
:100B500000BFFFF7DBFA824600BF00BF1F480068F6
:100B600090F8350030B101280CD002281AD00328A3
:100B700021D110E01CB119480068006C20600020F1
:100B800030801CE01CB115480068006C206046F203
:100B9000A910308013E00CB10020206047F2D9206A
:100BA00030800CE01CB10D480068006C206045F6F8
:100BB000C250308003E046F62E60308000BF00BF98
:100BC00000BF00BF5046FFF7A5FA00BF00BF00BF3F
:100BD000F1E600004CC007204D555458D8C00720FE
:100BE00080C007202DE9F84F0446884615464FF08F
:100BF000000A55480078002804DD46F20E202880BF
:100C0000BDE8F88F1CB945F6C3502880F8E7B8F165
:100C1000000F03D0B8F5004F02D100E000BF03E0A1
:100C200045F625602880EBE700BF484920688842E8
:100C300003D045F6C4502880E2E700BF00BFFFF7AD
:100C400065FA824600BF00BF4149206A09688842B0
:100C50000AD000BF00BF5046FFF75CFA00BF00BFDC
:100C600045F281702880CBE7FFF77AFC0746A76240
:100C700094F82500401E84F8250094F825000028EB
:100C80000ADD00BF00BF5046FFF744FA00BF00BFB7
:100C900045F283702880B3E704F10809B9F8080029
:100CA00068B90020206284F8250000BF00BF5046CC
:100CB000FFF730FA00BF00BF00202880A0E72448DB
:100CC000006890F8370094F82410884219D0204822
:100CD000006801F0FBFC94F824001D49096881F8C4
:100CE00037001B49096891F8370001F037FC1848B4
:100CF000006801F0ABFC1648006890F83700154911
:100D00000870D9F800008668266296F8370084F8E3
:100D10002400012084F8250000231A46314620468D
:100D2000009701F083FB00BF00BF5046FFF7F2F9C8
:100D300000BF00BF18F4004F01D100F00DF80020F3
:100D4000288000BF5CE700004CC007204D55545878
:100D5000D8C0072066C0072010B500241F480078BF
:100D6000002800DD10BD1E480078002800DDF9E7EE
:100D700000BFFFF7CBF9044600BF01F0CFFB1949D4
:100D800008700846007800EB4000174951F8200031
:100D9000164908600846006815490968884205D167
:100DA00000BF2046FFF7B6F900BFDBE70F48006839
:100DB000D0F89000401C0D490968C1F890000D481A
:100DC0000068401C0B490860FFF729FA00BF204665
:100DD000FFF7A0F900BF00BFC4E700004CC0072028
:100DE00080C0072067C0072090CA0720DCC007200A
:100DF000D8C00720ACC0072070B5044600251848AD
:100E00000078002803DD46F66250208070BD15484A
:100E10000078012803D045F689602080F6E7124863
:100E20000078FA2803DB45F209202080EEE700BFB6
:100E300000BFFFF76BF9054600BF00BF0A48007806
:100E4000401C0949087001F06FFC00BF00BF284634
:100E5000FFF760F900BF00BF0020208000BFD5E78A
:100E60004CC007204DC0072080C0072070B5044645
:100E7000002520480078002803DD46F665502080D4
:100E800070BD1D480078012803D045F68960208098
:100E9000F6E71A48007818B946F664502080EFE764
:100EA00000BF00BFFFF732F9054600BF00BF13487F
:100EB0000078401E114908700846007800280ADDB5
:100EC00000BF00BF2846FFF725F900BF00BF46F668
:100ED00063502080D4E701F035FC00BF00BF2846F6
:100EE000FFF718F900BF00BFFFF736FF0020208092
:100EF00000BFC5E74CC007204DC0072080C00720B9
:100F00002DE9F04104460E4617461D464FF00008F5
:100F100018480078002804DD42F6E1602880BDE82A
:100F2000F0811CB945F6C3502880F8E700BF00BF28
:100F3000FFF7ECF8804600BF00BF0F482060276233
:100F400000206062666004F1080001F0FEF92046AE
:100F500001F07EFC09480088401C0849088000BF59
:100F600000BF4046FFF7D6F800BF00BF0020288032
:100F700000BFD4E74CC0072053454D4190C0072027
:100F80002DE9F04788B00646894690461C46109DDC
:100F90004FF0000A60480078002806DD46F2AE10E7
:100FA0002880002008B0BDE8F08726B945F6C35078
:100FB00028800020F6E7B8F1000F03D0B8F5004F05
:100FC00002D100E000BF04E045F625602880002043
:100FD000E8E700BF51493068884204D045F6C45064
:100FE00028800020DEE70CB10020206000BF00BF99
:100FF000FFF78CF8824600BF00BF306A88B1306AC4
:10100000401E30620CB1706A2060376A00BF00BFBA
:101010005046FFF77FF800BF00BF00202880384609
:10102000C0E718F4004F0CD0376A00BF00BF50462D
:10103000FFF770F800BF00BF46F2B01028803846B6
:10104000B0E73748007800280BDD00BF00BF5046EE
:10105000FFF760F800BF00BF46F66350288000200D
:10106000A0E74B4606223146684601F0C3F800BFB0
:1010700000BF5046FFF74EF800BF00BFFFF76CFE01
:1010800000BF00BFFFF742F8824600BF00BF2548FF
:10109000006890F8350030B101280CD002281AD031
:1010A000032821D110E01CB11E480068006C2060AC
:1010B0000020288024E01CB11A480068006C2060E1
:1010C00046F2A91028801BE00CB10020206047F2F6
:1010D000D920288014E01CB112480068006C206000
:1010E00045F6C25028800BE046F62E60288000BFEF
:1010F00000BF5046FFF70EF800BF00BF002051E7C9
:1011000000BF376A00BF00BF5046FFF703F800BFBB
:1011100000BF384646E700004CC0072053454D410C
:1011200080C00720D8C007202DE9F04105460E46B3
:1011300014462DB945F6C35020800020BDE8F0814B
:101140004EB1B6F5007F07D0B6F5004F05D0B6F525
:10115000024F04D102E000BF00BF00BF04E045F62B
:10116000256020800020E9E700BF0A4928688842FE
:1011700004D045F6C45020800020DFE7FFF7F0F9E7
:101180008046234642463146284601F085FB074605
:101190003846D3E753454D4110B504461248007810
:1011A000E8B901F0BBF91149087008460078104908
:1011B00008700E48007800EB40000E4951F82000FE
:1011C0000D490860084600680C490860012006497E
:1011D0000870FFF713F843F69920208002E045F6E7
:1011E0008A60208010BD00004DC0072067C0072026
:1011F00066C0072090CA0720DCC00720D8C007209F
:101200002DE9F04107464FF0000800BF00BFFEF790
:101210007DFF804600BF00BF00203C4908803C495C
:1012200008603C4908603C4908603C4908603C490A
:10123000088100BF00BF4046FEF76CFF00BF00BF43
:1012400000BF00BFFEF762FF804600BF00BF354809
:10125000046800BF00BF4046FEF75CFF00BF00BF50
:1012600024E000BF00BFFEF751FF804600BF00BF73
:10127000002004F17804E06320602063A061A08274
:10128000E0826062A062FFF76BF92062A4F178044B
:1012900004F164064FF00000B081D4F8BC4000BFF8
:1012A00000BF4046FEF736FF00BF00BF002CD8D17C
:1012B00000BF00BFFEF72AFF804600BF00BF1A48EC
:1012C000056800BF00BF4046FEF724FF00BF00BF17
:1012D00012E000BF00BFFEF719FF804600BF00BF4D
:1012E00005F120060020B081AD6900BF00BF404677
:1012F000FEF710FF00BF00BF002DEAD102F06AF830
:1013000002F0B2FA00203880BDE8F08196C00720D4
:10131000A8C00720BCC00720C8C0072078C007208D
:1013200084CA0720B0C007206CC0072010B503484E
:10133000006810B101480068804710BD3CC007201C
:101340002DE9FF4F85B004469046DDE91995159FBC
:10135000139E0020029061480078002805DD47F2C6
:101360004A10288009B0BDE8F08F1CB947F2AD10D3
:101370002880F7E7B8F1000F03D147F24F1028801B
:10138000F0E71EB946F62F602880EBE75448006866
:10139000874203D246F630602880E3E71498B842CB
:1013A00003D346F631602880DCE71298202803D367
:1013B00046F273202880D5E712981F2806D14948A5
:1013C000844203D046F273202880CBE7204601F008
:1013D00017FD0020288019F0010F10D019F0020F1E
:1013E0000DD0B346049007E00020CBF800000BF1CD
:1013F000040B0498401C04900498B842F4D3149849
:1014000006EB80000390CDE9007932464046039B0D
:10141000089900F015FB8346C4F828800898E0621C
:1014200006982062129884F83700C4F800B0039838
:10143000A06017986065179818B92B480068A065D8
:1014400001E01798A065189860606662A763A4F829
:101450003C904FF0000A08E0002104F17C0040F8C5
:101460002A100AF1010000F0FF0ABAF1000FF3D0D0
:1014700004F16400169900F015FE204600F03AF8D9
:1014800000BF00BFFEF742FE029000BF00BF94F80D
:10149000370001F063F8204601F0D8F8204601F04B
:1014A00087FC12480088401C1049088010480078CA
:1014B000012807D000BF00BF0298FEF72BFE00BF37
:1014C00000BF4FE700BF00BF0298FEF723FE00BF3A
:1014D00000BFFFF741FC00BF44E700004CC00720FD
:1014E000FC430000C0C9072084C00720B4C0072007
:1014F0004DC0072010B504460348006818B12046C7
:1015000001490968884710BD2CC007202DE9F05F0C
:1015100080460F4616461C460A9D4FF0000B6E484B
:101520000078002805DD46F2AE1028800020BDE8D6
:10153000F09F26B946F2D52028800020F7E71FB19A
:10154000B7F5004F02D100E000BF04E045F625608A
:1015500028800020EBE700BF0CB10020206000BF16
:1015600000BFFEF7D3FD834600BF00BF5B480068A5
:1015700000F164092B4622463146484600F05EFDE4
:1015800082462888F0B9A4B1FEF7EAFF2168401A24
:1015900052490968486751480068806F4F49096897
:1015A000496F884205D24D480068406F4B49096831
:1015B000886700BF00BF5846FEF7ACFD00BF00BF04
:1015C0005046B4E717F4004F0BD046F2B010288015
:1015D00000BF00BF5846FEF79DFD00BF00BF0020C2
:1015E000A5E73F48007800280BDD00BF00BF584644
:1015F000FEF790FD00BF00BF46F663502880002034
:1016000095E7434602220021084600F0F3FD00BFA3
:1016100000BF5846FEF77EFD00BF00BFFFF79CFBF2
:1016200000BF00BFFEF772FD834600BF00BF2B481E
:10163000006890F8350020B101282AD0032832D163
:1016400032E026480068D0F85CA024480068B0F872
:1016500060003080D4B121480068006C2060FEF743
:101660007FFF1E490968096C401A1C4909684867D0
:101670001A480068806F19490968496F884205D285
:1016800016480068406F154909688867002028805F
:1016900017E04FF0000A0020308004B1206046F2CD
:1016A000A91028800DE000BF4FF0000A0020308014
:1016B0001CB10A480068006C206047F2D9202880DD
:1016C00000BF00BF00BF00BF5846FEF723FD00BFAC
:1016D00000BF50462BE700004CC00720D8C00720B1
:1016E00080C007202DE9FC470746884691461C46E6
:1016F0000A9D4CB1102C08D0B4F5004F06D0A4F5CB
:101700000040103804D102E000BF00BF00BF04E079
:1017100045F625602880BDE8FC8700BFFEF720FF66
:10172000064623464A4641463846CDE9006501F063
:10173000D1FB00BFEFE7000010B504460348006886
:1017400018B1204601490968884710BD34C00720F8
:101750002DE9F04780460E4614461D464FF000091D
:101760006F480078002805DD46F2AE102880002082
:10177000BDE8F0871EB1B6F5004F02D100E000BF12
:1017800004E045F6256028800020F1E700BF0CB199
:101790000020206000BF00BFFEF7B8FC814600BFFC
:1017A00000BF60480068406CA8B35E480068406CA9
:1017B000401E5C49096848645A480068476C1CB17F
:1017C00058480068006C2060FEF7CAFE5549096859
:1017D000096C401A53490968C1F8A40051480068CF
:1017E000D0F8A8004F490968D1F8A410884207D260
:1017F0004C480068D0F8A4004A490968C1F8A8001C
:1018000000BF00BF4846FEF785FC00BF00BF0020B8
:1018100028803846ACE7FFE716F4004F0BD000BF36
:1018200000BF4846FEF776FC00BF00BF46F2B0108E
:10183000288000209CE73C48007800280BDD00BF92
:1018400000BF4846FEF766FC00BF00BF46F6635087
:10185000288000208CE7434607220021084600F03C
:10186000C9FC00BF00BF4846FEF754FC00BF00BFE4
:10187000FFF772FA00BF00BFFEF748FC814600BFC9
:1018800000BF2848006890F8350020B1012826D014
:10189000032834D12CE0FCB122480068006C2060A1
:1018A000FEF75EFE1F490968096C401A1D49096868
:1018B000C1F8A4001B480068D0F8A80019490968BD
:1018C000D1F8A410884207D216480068D0F8A400C6
:1018D00014490968C1F8A8000020288013E01CB151
:1018E00010480068006C206046F2A91028800AE0C9
:1018F0000CB10020206047F2D920288003E046F692
:101900002E60288000BF00BF06480068476C00BFFB
:1019100000BF4846FEF7FEFB00BF00BF384627E782
:101920004CC00720D8C0072080C007202DE9F04117
:1019300006460D4614461DB1B5F5004F02D100E034
:1019400000BF05E045F6256020800020BDE8F0815D
:1019500000BFFEF705FE8046234642462946304634
:1019600001F048FB07463846F0E700002DE9F04754
:1019700005460E4617461C464FF0000A2E480078D2
:10198000002804DD47F259102080BDE8F0871EB919
:1019900046F2D5202080F8E71FB946F2D5202080F6
:1019A000F3E700BF00BFFEF7B1FB824600BF00BFF8
:1019B0000DB922480568286868B900BF00BF5046C5
:1019C000FEF7A8FB00BF00BF00203060386047F280
:1019D00052102080D9E795F83C0010F0010F0DD18E
:1019E00000BF00BF5046FEF795FB00BF00BF0020C0
:1019F0003060386047F254102080C6E700BF00BF57
:101A00005046FEF787FB00BF00BF4FF00008D5F837
:101A1000249003E009F1040908F10108D9F8000055
:101A20000028F7D0C6F80080A86BA0EB080038604B
:101A30000020208000BFA8E74CC00720D8C00720A6
:101A4000F0B50446DDE9055602EB85004FF0807CD9
:101A5000071F3846C7F800C0071F38463C60DFF84C
:101A60009CC0071F3846C7F800C04FF0123C071F44
:101A70003846C7F800C04FF0033C071F3846C7F888
:101A800000C04FF0023C071F3846C7F800C0071FD0
:101A900038463B60071F384639604FF0113C071F3E
:101AA0003846C7F800C04FF0103C071F3846C7F84B
:101AB00000C04FF0093C071F3846C7F800C04FF080
:101AC000083C071F3846C7F800C04FF0073C071F07
:101AD0003846C7F800C04FF0063C071F3846C7F825
:101AE00000C04FF0053C071F3846C7F800C04FF054
:101AF000043C071F3846C7F800C0F0BDD12F0000D6
:101B000010B51D48006810B11B4800688047FEF7FB
:101B100027FD04461948006819490968884215D00C
:101B200016480068D0F89800201A14490968C1F8CE
:101B3000940012480068D0F89C0010490968D1F858
:101B4000941008440D490968C1F89C000C480068CD
:101B5000C0F8984009480068D0F8B40009490968FD
:101B6000884205D20748006804490968C1F8B400F2
:101B700000200449086010BD40C00720D8C00720DD
:101B8000DCC007207CC007202DE9F04105460E4649
:101B9000144600272A480078002804DD47F2752003
:101BA0002080BDE8F08127480078002803DD46F654
:101BB00063502080F5E736B1022E05D0042E0AD0FE
:101BC000082E09D101E000BF00BF1DB947F27E20F9
:101BD0002080E6E704E003E045F625602080E0E7AA
:101BE00000BF00BF00BFFEF791FA074600BF00BF6D
:101BF00001201549096881F83600234632462946F6
:101C00001148006801F0ECFA208838B100BF00BF2D
:101C10003846FEF77FFA00BF00BFC2E70A480068F7
:101C200000F054FD00BF00BF3846FEF773FA00BF56
:101C300000BFFFF791F80020208000BFB1E700004F
:101C40004CC0072080C00720D8C0072008B500F08E
:101C50002BF86A4600210E48FFF768FE0D49097807
:101C600001EB41010C4A02EB810000F089FD0B48B9
:101C70000068401E094908600846006838B90848ED
:101C8000006808606A4600210648FFF74FFE08BD5D
:101C9000D4CC072066C0072090CA0720D4C00720F4
:101CA000D0C0072098CD072010B50348006810B1B8
:101CB00001480068804710BD44C0072010B50024CB
:101CC00000BF00BFFEF722FA044600BF00BF08486D
:101CD0000078401C0649087000BF00BF2046FEF790
:101CE00019FA00BF00BFFFF7B1FFFEF7A1FD10BD5D
:101CF0004CC0072001464A1E4FF0E0235A61084AB3
:101D0000106820F07F4000BF10601A46126942F050
:101D100005021A611A46126942F002021A617047FE
:101D200020ED00E02348244824482548254826483B
:101D300026482748274828482848294829482A4823
:101D40002A482B482B482C482C482D482D482E48F3
:101D50002E482F482F4830483048314831483248C3
:101D60003248334833483448344835483548364893
:101D700036483748374838483848394839483A4863
:101D80003A483B483B483C483C483D483D483E4833
:101D90003E483F483F484048404841484148424803
:101DA00042484348434844484448454845484648D3
:101DB00000BF704744440000AC45000046440000AA
:101DC00047440000484400004C44000050440000D8
:101DD0004D44000078440000794400007A4400003B
:101DE0007C4400007E4400008244000084440000E3
:101DF000A4440000A6440000A8440000AA44000037
:101E0000AC440000AE440000B0440000DC440000DC
:101E1000DD440000DE440000E0440000E244000035
:101E2000E3440000E4440000E6440000E84400000D
:101E3000EA440000EC440000EE440000F0440000DE
:101E400020450000214500002245000023450000F8
:101E500024450000264500002845000050450000AC
:101E60005145000052450000534500005445000014
:101E700056450000584500005C4500005D450000E7
:101E80005E4500005F4500006045000061450000C0
:101E9000624500006345000064450000664500009F
:101EA00067450000684500006A4500006C45000079
:101EB0006D45000070450000A4450000A5450000E8
:101EC000A6450000A8450000AA4500000021034ADD
:101ED0001160034A118001807047000050C0072044
:101EE00054C00720002400BF19E000BF00BFFEF768
:101EF0000DF9044600BF00BF09480068401C0849AE
:101F0000086008480068401C0649086000BF00BF20
:101F10002046FEF7FFF800BF00BFFEF78DFBE4E7A9
:101F200048C0072098C0072010B58AB0044600209A
:101F30000E4908600B2000210591CDE907040691A8
:101F400008460B4909680B4A12680B4B1B68CDE920
:101F50000132CDE903101F200023084A08A1009098
:101F60000C48FFF7EDF90AB010BD000048C007208B
:101F7000A8430000A4430000A0430000E51E0000A9
:101F800075432F4F532D4949492049646C652054AE
:101F900061736B00C0C907200021034A1160034A26
:101FA000118001807047000058C007205CC00720E6
:101FB00070B502460B461046114610315E1EB5B292
:101FC000002408E00160002646600681C6601030EB
:101FD0001031661CB4B2AC42F4DB002606604660E9
:101FE0000681C66070BD000010B504461048006848
:101FF00018B945F21E70208010BD0E48008818B92F
:1020000045F21D702080F7E70A48018808480068FB
:10201000FFF7CEFF064800680749086005480088BA
:1020200088800020C8800881208000BFE4E700008D
:10203000E0430000D843000084CA0720F0B50446FE
:102040000D46608940B90020288002B1106046F238
:10205000925018800020F0BD61684E680889288081
:102060000AB1C868106008686060606818B900202C
:102070002060608102E06089401E6081084800683D
:102080000860074801608088401C054FB8803846CA
:10209000C088401EF880002018803046DBE7000032
:1020A00084CA07200181002242818281026042604D
:1020B000704700002DE9F0410D46DDE90674B0F8E7
:1020C0000AC0B0F80880C44505DB46F2935CA4F86A
:1020D00000C0BDE8F081DFF8D0C0BCF804C0BCF19E
:1020E000000F04D145F21D7CA4F800C0F1E7DFF831
:1020F000B8C0DCF80010DFF8B080D1F800C0C8F834
:1021000000C0C446BCF804C0ACF1010CA8F804C07F
:10211000C446BCF806C00CF1010CA8F806C0C446C1
:10212000BCF808C0B8F80680C44507DADFF878C004
:10213000BCF806C0DFF87080A8F808C0B0F80AC084
:10214000BCF1000F06D1016041604FF0010CA0F816
:102150000AC015E013F0100F07D1066831604FF088
:10216000000CC1F800C0016004E0D0F804C0C1F860
:1021700000C04160B0F80AC00CF1010CA0F80AC020
:10218000B0F80CC0B0F80A80C44503DAB0F80AC051
:10219000A0F80CC04D600A81CF604FF0000CA4F88D
:1021A00000C000BF95E7000084CA072009A1C161F3
:1021B000002141610849096811B90021816105E0E8
:1021C0000549096881610449096848610249086054
:1021D000704700002000000060C007200021034A73
:1021E0001160034A118001807047000060C0072021
:1021F00064C007202DE9F04105460C4616461F46EF
:102200001548006880F8346000201349096881F897
:10221000350039461048006800F0AEFD6CB104F19D
:102220000808EC60012229460B48006800F016F807
:102230002946404600F08EF806E00020064909686D
:10224000C88705490968086303480168204600F00B
:1022500019F8BDE8F0810000D8C0072010B5C2878A
:10226000016300230AE000244C600C600C614C61A7
:102270000C83CC61886020315C1CA3B29342F2DBFA
:1022800010BD000030B548B14568C1F8C05000F13C
:102290000804226893681D6AC56113E091F8345000
:1022A000022D02D0072D08D103E007A5C1F8C050C8
:1022B00007E007A5C1F8C05003E008A5C1F8C05069
:1022C00000BF00BF30BD00005461736B205100009F
:1022D0005461736B2053656D000000002000000006
:1022E00030B507A5C1F8C05000F1080422681AB142
:1022F00093681D6AC56101E001A5C56130BD00009C
:10230000200000002DE9F04304460F4684F83770A2
:10231000256BB4F83E8013E0D5F80C9009F108065F
:102320003089012807D92946304600F05EF8294651
:10233000304600F00FF82035A8F101001FFA80F8B0
:10234000B8F1000FE8D1BDE8F083002101604160E1
:1023500001817047F0B58E6896F8375007893FB90C
:102360000127078100274F600F600160416023E073
:1023700007897F1C0781026806E0946894F837702B
:10238000AF4200DD02E05268002AF6D100BF32B948
:1023900000274F6043680B60596041600CE017688C
:1023A0002FB9116000270F604A60016004E01368D4
:1023B0000B604A6059601160F0BD2DE9F0410446A0
:1023C000256BE68F0AE0D5F80C8008F1080729464E
:1023D000384600F00AF82035701E86B2002EF2DC76
:1023E0000020E0872063BDE8F08110B50489012C4E
:1023F00003D100240460446011E00C6824B94A68E9
:102400000024146002600AE04C6824B90B680024C0
:102410005C60436003E00B684A685A60136004899B
:10242000641E048100244C600C6010BD2DE9F8434B
:1024300006460C4617469846089D94F8360008282C
:1024400053D2DFE800F00405080906072C2D00BF71
:1024500000BF00BF4AE000BF94F83400032807D152
:1024600043463A4621463046009500F042F803E0E4
:10247000E765A4F86080256436B12046FFF79DFF2C
:1024800021463046FFF72CFF204600F093FD002048
:1024900004F13404A070607004F8340926E000BF31
:1024A00094F83400032807D143463A462146304683
:1024B000009500F01EF803E0E765A4F8608025644D
:1024C000204600F06BFF36B12046FFF776FF21462D
:1024D0003046FFF705FF042004F13404A0704FF0EC
:1024E0000000607004F8340900E000BF00BFBDE8E0
:1024F000F883F0B50446059E086BCD8F0AE0C768E7
:10250000A74204D1046142610383C66104E0203024
:102510006F1EBDB2002DF2DC00BFF0BD70B500250E
:10252000074C03E005F12000C5B2241D20680028F7
:10253000F8D02068FDF7F5FD2844C5B2284670BDE7
:1025400028C00720002004E00021034A42F82010A0
:10255000401C0028F8D0704728C0072030B5420939
:1025600000F01F030121C3F11F04A140034C54F8E4
:1025700022400C43014D45F8224030BD28C00720C1
:1025800030B5420900F01F030121C3F11F04A1402F
:10259000034C54F822408C43014D45F8224030BD95
:1025A00028C007200021034A1160034A11800180DE
:1025B000704700006CC0072070C0072000210AE0AF
:1025C00001EB4102054B03EB820000220281026015
:1025D00042604A1CD1B22029F2D3704790CA07202A
:1025E00010B5044694F83700FFF7B8FF94F83700A9
:1025F00005490978884203D1204600F027F802E017
:10260000204600F003F810BD66C0072010B590F812
:10261000373003EB43030C4C04EB83010B893BB9CC
:1026200001230B810023C36003610860486009E057
:102630000B895B1C0B810B68C360002303610A6874
:102640001061086010BD000090CA072010B590F816
:10265000373003EB43030B4C04EB83010B893BB98D
:1026600001230B810023C36003610860486008E018
:102670000B895B1C0B810023C3604A680261D06038
:10268000486010BD90CA072010B501460C8924B1DE
:10269000012C03D0022C0CD101E000BF14E008682B
:1026A0004A6802610024C4601461D0600A60486016
:1026B0000AE008684A68C36800241C61C4600261BB
:1026C000D0600B60486000BF00BF10BD2DE9F04135
:1026D000054695F8370000EB4000124901EB8004F5
:1026E0002F69EE6887B946B90020208120606060BC
:1026F00095F83700FFF744FF0EE02089401E208147
:1027000000203061266007E02089401E2081FE60A5
:102710000EB9676000E0376100202861E860BDE81D
:10272000F081000090CA072010B504480078012805
:1027300003D1FDF715FF0249086010BD80C00720D6
:1027400074C0072010B50A48007880B9FDF708FF6B
:1027500008490968441A08480068A04201D206489E
:10276000046006480068A04201D20448046010BD1D
:1027700080C0072074C0072078C007207CC00720D5
:1027800070B5054600262E480078012800D070BD9F
:1027900000BF00BFFDF7BAFC064600BF00BF2C68B3
:1027A0003CB900BF00BF3046FDF7B4FC00BF00BF1E
:1027B000EDE72448844207D100BF00BF3046FDF753
:1027C000A9FC00BF00BFE2E7A06D10B1A06D401EE4
:1027D000A065A06D38B100BF00BF3046FDF79AFC80
:1027E00000BF00BFD3E72889022807DA00BF00BF77
:1027F0003046FDF78FFC00BF00BFC8E712480078E5
:10280000002807DD00BF00BF3046FDF783FC00BF96
:1028100000BFBCE72846FFF737FF2C68606D18B98A
:102820000A480068A06501E0606DA06500BF00BFB8
:102830003046FDF76FFC00BF00BF00BFA7E70000F8
:1028400088C00720C0C9072080C0072084C0072097
:1028500009A1C161002141610849096811B900213C
:10286000816105E005490968816104490968486199
:102870000249086070470000200000008CC007205B
:102880000021034A1160034A118001807047000053
:102890008CC0072090C007202DE9FF5F04468846C2
:1028A00091461D460020019000BF00BFFDF72EFCA1
:1028B000019000BF00BF04F10807388900284FD1FC
:1028C0000420012804D0022814D0042834D123E0A5
:1028D000206AFF280DD100BF00BF0198FDF71AFC48
:1028E00000BF00BF46F6C5502880002004B0BDE8F8
:1028F000F09F22E0206AA0F57F41FF390BD100BF95
:1029000000BF0198FDF706FC00BF00BF46F6C550AA
:1029100028800020EAE710E0206A401C0BD100BFAD
:1029200000BF0198FDF7F6FB00BF00BF46F6C5509B
:1029300028800020DAE700E000BF00BF206A401CCA
:102940002062D4F820A0C4F8249000BF00BF0198F2
:10295000FDF7E0FB00BF00BF002028805046C5E720
:1029600018F4007F01D03E8900E00126D7F800B0BE
:1029700011E0DBF808000290DBF80400039000236C
:102980001A46CDF8009020460299FFF74FFDDDF87A
:102990000CB0701E86B2002EEBD1D4F820A000BF80
:1029A00000BF0198FDF7B6FB00BF00BF18F4004F51
:1029B00001D1FEF7D1F900202880504696E70000AB
:1029C00086B00020009000BF06E0A94909684800D1
:1029D00001AA0021FFF7D8F8A64800780128F4D111
:1029E00001A8FEF70DFC0027A3480068A04909686C
:1029F000884205D9A04800689D490968B0FBF1F7F5
:102A000027B99D4800680A21B0FBF1F72EE1FDF7D8
:102A1000A7FD804600BF00BFFDF778FB009000BF18
:102A200000BF9648006896490860002093490860F6
:102A300000BF00BF0098FDF76DFB00BF00BF9148CD
:102A400000688F490968884248D98E4800688E49D5
:102A5000884205D242F2107003900120029023E0D8
:102A6000884800688949884205D24FF47A700390FB
:102A70000A20029018E0834800688549884203D202
:102A80006420039002900FE07E48006881498842EC
:102A900005D20A2003904FF47A70029004E00120DE
:102AA000039042F210700290764801680298B1FBE0
:102AB000F0FA7349039809684843B0FBFAF042F210
:102AC0001071081A7449088074480088098888427F
:102AD00008DA714800887149088003E042F21070FA
:102AE0006D490880FEF722FC002500BF00BFFDF7FE
:102AF0000DFB009000BF00BF6948046800BF00BF25
:102B00000098FDF707FB00BF00BF26E000BF00BF35
:102B1000FDF7FCFA009000BF00BF54F89C0F606006
:102B2000002044F89C0900BF00BF0098FDF7F2FAAE
:102B300000BF00BFD4F8A000054400BF00BFFDF7F0
:102B4000E5FA009000BF00BFD4F8BC4000BF00BF52
:102B50000098FDF7DFFA00BF00BF002CD6D145B3C7
:102B60004948854205D242F2107005904FF0010BA2
:102B70001BE04648854205D24FF47A7005904FF02D
:102B80000A0B12E04248854203D264200590834636
:102B90000BE04048854204D20A2005904FF47A7B2E
:102BA00003E00120059042F2107BB5FBFBF004909E
:102BB00003E0002005900120049000BF00BFFDF756
:102BC000A5FA009000BF00BF3548046800BF00BFF1
:102BD0000098FDF79FFA00BF00BF2BE0D4F8A000DB
:102BE000059948430499B0FBF1F086B242F21070A7
:102BF000864200D90646A4F88C60B4F88E00B04234
:102C000001DAA4F88E6001AB04F1AC02111D20467C
:102C1000FEF7ACFE00BF00BFFDF778FA009000BFE2
:102C200000BFD4F8BC4000BF00BF0098FDF772FAA7
:102C300000BF00BF002CD1D11A480078012805D16F
:102C400000201849087001A8FEF7DAFAFDF788FCA1
:102C5000A0EB080914480068484502D21248C0F8A1
:102C6000009001AA00213846FEF78EFFCFE6000053
:102C7000E8430000A4C007200044000098C00720DB
:102C8000A0C007209CC00720801A060000093D0054
:102C9000005A62020084D71794C0072096C007200C
:102CA000B0C0072092C00720A8C0072010B58AB086
:102CB000044600201F4908601F4908601F4908603A
:102CC0001F4908701F4908701F48006820B946F660
:102CD0002B6020800AB010BD1C4800681C490968A0
:102CE000884203D246F62C602080F3E7194800782A
:102CF0001F2803D346F62A602080EBE7032000213B
:102D00000591CDE907040691084610490968124A61
:102D100012680D4B1B68CDE90132CDE903100D4857
:102D2000007800230D4A0EA100901248FEF708FB20
:102D300000BFCFE798C00720A0C007209CC0072095
:102D4000A4C0072092C00720EC430000F443000019
:102D5000FC430000E4430000F0430000C1290000F0
:102D600075432F4F532D49494920537461742054A2
:102D700061736B0010CC072038B504460D4685B151
:102D80006B4602222946204600F02AFABDF80000D0
:102D900018B9032084F8360006E0022084F83600D3
:102DA00002E0022084F836002046FFF78FFC38BD91
:102DB0000021C0F8B8100949096819B90021C0F804
:102DC000BC1007E005490968C0F8BC100349096850
:102DD000C1F8B8000149086070470000B0C0072082
:102DE0000021044A1160044A1180044A11600180E4
:102DF00070470000B0C00720B4C00720ACC0072057
:102E000070B5044600202060A0606060E060206132
:102E10006061A061E0612CA0206200206062A0627D
:102E2000E0622063E0872064E065A4F86000002190
:102E300004F16400FFF736F9002044F8740F606075
:102E4000E060A0822061A4F17404054606E0002140
:102E500004F17C0040F82510681CC5B2002DF6D0A6
:102E6000002004F13404206120676067606084F80A
:102E70005600E067A06720814FF0004060614FF08E
:102E80000000A061E06120626062A4F85800A4F82C
:102E90005A00E0652066FDF763FB06466666002083
:102EA000A066C4F8800020706070A0702020E070E0
:102EB0000020C4F88400C4F8880005A0C4F88C0081
:102EC000A4F1340470BD00003F5461736B00000036
:102ED000200000002DE9FC4704460F469046994625
:102EE000DDE90A654FF0000A00BF00BFFDF70EF9EB
:102EF000824600BF00BF0CB92D480468002028801E
:102F000094F83600082845D2DFE800F004051819C7
:102F100006071A1B00BF00BF00BF4B46424639469A
:102F200004F16400CDE90065FFF7C4F800BF00BFFD
:102F30005046FDF7EFF800BF00BF36E000BF00BF0E
:102F400000BF94F83400022813D143463A46214684
:102F500000200096FFF76AFA00BF00BF5046FDF759
:102F6000D9F800BF00BF19F4004F12D1FDF7F4FEED
:102F70000FE04B464246394604F16400CDE9006556
:102F8000FFF798F800BF00BF5046FDF7C3F800BF39
:102F900000BF0AE000BF00BF5046FDF7BBF800BF0E
:102FA00000BF46F62D60288000BF00BFBDE8FC874B
:102FB000D8C0072010B50446204600F0EFF994F879
:102FC000360010F0040F02D12046FFF709FB10BDB8
:102FD00008B506480068FEF7AFFB00BF6A4600214F
:102FE00003480068FEF7D0FDF8E70000D8C00720CE
:102FF000004400002DE9F8430446884617461D4664
:103000004FF0000900BF00BFFDF780F8814600BF08
:1030100000BF0CB96748046827640020288094F832
:103020003600082875D2DFE800F004055051060785
:10303000525300BF00BF00BF0420012804D0022863
:1030400013D0042833D122E0606CFF280CD100BFDC
:1030500000BF4846FDF75EF800BF00BF46F6C5500A
:1030600028800020BDE8F88322E0606CA0F57F4155
:10307000FF390BD100BF00BF4846FDF74BF800BF3A
:1030800000BF46F6C55028800020EBE710E0606CDA
:10309000401C0BD100BF00BF4846FDF73BF800BF06
:1030A00000BF46F6C55028800020DBE700E000BFE7
:1030B00000BF606C401C6064666C00BF00BF484687
:1030C000FDF728F800BF00BF70E000BF00BF00BFE1
:1030D00094F83400072814D100231A4621461846D4
:1030E0000097FFF7A3F9666C00BF00BF4846FDF7E5
:1030F00011F800BF00BF18F4004F4AD1FDF72CFEB5
:1031000047E00420012805D0022813D0042833D139
:1031100022E03FE0606CFF280BD100BF00BF4846B3
:10312000FCF7F8FF00BF00BF46F6C550288000201E
:1031300098E722E0606CA0F57F41FF390BD100BF1A
:1031400000BF4846FCF7E6FF00BF00BF46F6C5508B
:103150002880002086E710E0606C401C0BD100BF87
:1031600000BF4846FCF7D6FF00BF00BF46F6C5507B
:103170002880002076E700E000BF00BF606C401CA4
:103180006064666C00BF00BF4846FCF7C3FF00BF29
:1031900000BF0BE000BF00BF4846FCF7BBFF00BF0D
:1031A00000BF46F62D602880002600BF00BF3046D5
:1031B00058E70000D8C00720002108E0064A02EBCB
:1031C000C100002202608280C2804A1C91B2034A80
:1031D00012889142F2DB70478013001018440000FF
:1031E0002DE9F04F0C4616461D46042E1ED1DFF881
:1031F000A091D9F80090A4EB0909A9F1010313F5F6
:10320000803F0DD94FF00009C0F84C90C0F85090A5
:10321000C0F81C9047F27E29A5F80090BDE8F08F19
:10322000C46403F10109C0F850903FE084B3082E54
:1032300025D1D0F8489009EB0407DFF85491D9F86C
:103240000090A7EB0909A9F10103A34201D2C764C9
:1032500006E0DFF83C91D9F80090A144C0F84C900A
:10326000DFF82CA1D0F84C90DAF800A0A9EB0A09FD
:10327000C0F85090D0F84C90C0F8489016E0DFF8B5
:103280001091D9F80090A144C0F84C9004650DE06D
:10329000FFE74FF00009C0F84C90C0F85090C0F81C
:1032A0001C9047F27E29A5F80090B7E7DFF8E4A06C
:1032B000BAF800A0D0F84C90B9FBFAFB0AFB1B99B6
:1032C0001FFA89F8DFF8D09009EBC802B2F8049031
:1032D000B9F1000F0BD14FF00009C0F81490C0F8FD
:1032E000189010604FF00109A2F804903EE01168B8
:1032F00034E0DFF89CA0D1F84C90DAF800A0A9EBFC
:103300000A09C1F85090D0F85090D1F850A0D1459A
:103310000ED9D1F81490B9F1000F01D049691DE020
:103320004FF00009C0F8149081614861002115E058
:10333000D1F81890B9F1000F07D14FF00009C0F88B
:10334000189041618861106007E0D1F818C0C0F89A
:1033500018C04161CCF81400886100210029C8D14F
:10336000B2F8049009F10109A2F80490B2F80690AD
:10337000B2F804A0D14503DAB2F80490A2F806909E
:10338000C2614FF00009A5F8009000BF46E70000B9
:10339000B8C00720184400008013001010B5C2699F
:1033A000BAB1002404651468844205D141691160F2
:1033B00039B100248C6104E0816943694B6103B138
:1033C0009961002444618461C461C4649488641E6A
:1033D000948010BD002006E0054A02EBC0010022E7
:1033E000CA80421C90B2034A12889042F4DB7047B4
:1033F00080130010184400002DE9F05F4FF0000B1F
:1034000000BF00BFFCF782FE834600BF00BFFDF790
:10341000A7F8054659480068401C58490860084606
:10342000006857490988B0FBF1F201FB12001FFA4E
:1034300080FA544800EBCA08D8F80040002788E01A
:10344000002C7DD0D4F8149094F8360008287BD254
:10345000DFE800F00408051B0640075300BF00BF6B
:1034600000BF72E04549E06C0968401A2065434995
:10347000E06C0968884206D1002084F836002046B6
:10348000FFF798FD00E001275FE03C49E06C096828
:10349000401A20653949E06C0968884218D100203B
:1034A000E065A4F86000FDF75BF820642046FEF7B5
:1034B00084FF2046FFF77EFD002004F13404A07055
:1034C0004FF0030060704FF0000004F8340900E092
:1034D00001273AE02949E06C0968401A206527492C
:1034E000E06C0968884206D1042084F83600204642
:1034F000FFF754FF00E0012727E02049E06C09684E
:10350000401A20651D49E06C096888421AD10020E4
:10351000E065A4F86000FDF723F820642046FEF77C
:103520004CFF2046FFF73AFF042004F13404A0705A
:103530004FF0030060704FF0000004F8340902E01F
:1035400006E001E0012700E000BF00BF4C4600E0BC
:103550000127002F3FF474AFFDF702F8461B0A481D
:103560000068B04201D20848066000BF00BF58465C
:10357000FCF7D0FD00BF00BFBDE8F09FB8C007203A
:103580001844000080130010BCC007201CB500BF09
:103590000EE001AB6A4600210846FEF7D9F8BDF8F7
:1035A000040028B903480078012801D1FFF724FF5F
:1035B000EFE700004DC0072010B58AB00446002098
:1035C0001D4908601D490860FFF7F6FD1C480068AA
:1035D00020B947F2122020800AB010BD19480068B7
:1035E00019490968884203D247F213202080F3E783
:1035F000164800781F2803D347F211202080EBE7FC
:103600000B20002105910A46CDE9070406910D48DB
:1036100000680F4909680A4B1B68CDE90131CDE903
:1036200003020A48007800230A4A0BA100900F48C1
:10363000FDF786FE00BFCFE7B8C00720BCC007205B
:103640000844000010440000FC4300000444000053
:103650000C4400008D35000075432F4F532D494910
:1036600049205469636B205461736B00D4CC0720EC
:1036700070B58AB0044600203149086031480068BE
:1036800040B1314800682F490968B0FBF1F02F497B
:10369000086006E02C4800680A21B0FBF1F02B49D5
:1036A00008602A4800682A49086000202949086003
:1036B00029490860002508E0284800EBC5060020DD
:1036C000B080F0803060681C85B225480088854253
:1036D000F2DB2448006820B947F2473020800AB066
:1036E00070BD2148006821490968884203D247F229
:1036F00048302080F3E71E4800781F2803D347F2A4
:1037000046302080EBE70B2000210591CDE907042E
:103710000691084614490968164A1268114B1B683D
:10372000CDE90132CDE90310114800780023124A97
:1037300012A100901748FDF703FE00BFCFE700007D
:10374000C0C007202444000000440000D0C007206F
:10375000D4C00720CCC00720C8C00720081600101E
:10376000384400002844000030440000FC430000BE
:10377000204400002C4400008D38000075432F4F7A
:10378000532D4949492054696D6572205461736B0A
:103790000000000098CD0720F0B50C46022680F806
:1037A0002A60012C05D12D4F466A3F683E44866150
:1037B0000CE0066A2EB9294F466A3F683E4486618E
:1037C00004E0264F066A3F683E448661244F3F88E6
:1037D0008669B6FBF7FC07FB1C66B5B2214E06EB0B
:1037E000C502166836B900260661466110600126DA
:1037F00096802CE0194F86693F68F61BC6611168F8
:1038000020E0164F8E693F68F61BCE61C669CF690E
:10381000BE4209D90E690EB1096913E0002606619E
:103820004161086100210DE04E692EB90026466114
:1038300001614861106004E04B69436101611861F6
:10384000486100210029DCD19688761C9680D688B4
:103850009788BE4201DA9688D680F0BDCCC007209A
:103860003844000008160010002006E0054A02EB6C
:10387000C0010022CA80421C90B2034A12889042C2
:10388000F4DB704708160010384400001CB500BF78
:1038900053E001AB6A4600210846FDF759FF01A835
:1038A000FDF7AAFAFCF75CFE064624480068401CB7
:1038B000224908600846006821490988B0FBF1F2F6
:1038C00001FB12001FFA80FA1E4800EBCA08D8F864
:1038D00000404FF0000B21E0F4B1D4F810901749EC
:1038E000A0690968884214D1204600F02FF8208D85
:1038F000022804D101212046FFF74EFF02E00320F9
:1039000084F82A00A56815B12046E168A8474C460E
:1039100004E04FF0010B01E04FF0010BBBF1000F91
:10392000DAD0FCF71DFE871B01A8FDF79FFA0648B9
:103930000068B84201D204480760AAE7CCC007205B
:103940003844000008160010C8C00720F0B5114E1A
:1039500036888569B5FBF6F706FB1755ACB20E4DF8
:1039600005EBC4021568854205D10169116039B1C2
:1039700000254D6104E0416903690B6103B15961A0
:10398000012580F82A5000250561456195886D1E46
:103990009580F0BD384400000816001010B50446AC
:1039A000A2786178207800F08FFAE2786178207848
:1039B00000F0C2FA22796178207800F0A5FA10BDF3
:1039C0004248006800F00070B0F1007F0FD140481D
:1039D000006820F002003F49C1F880004FF0AA00C3
:1039E0003D4908604FF055003A49C1F88C0038480D
:1039F000006820F001003749C1F880004FF0AA00AC
:103A0000354908604FF055003249C1F88C0000BFBD
:103A10002E48006800F00070B0F1007FF8D0202040
:103A20002E4908602B48D0F8A00110F0200F05D0D7
:103A300000BF2A48006810F0400FFAD00220284941
:103A400008604FF000002349C1F8A801254908602B
:103A50004FF00100244908604FF00B002349086033
:103A60004FF0AA001C4908604FF0550008604FF065
:103A70000100174908604FF0AA00174908604FF08D
:103A800055001449C1F88C0000BF1048006810F0C0
:103A9000806FFAD003200E4908604FF0AA000D494C
:103AA000C1F88C004FF055000B49086010481149CF
:103AB00008604FF000001049086043F23A000549E1
:103AC00008604FF000000D490860704788C00F4043
:103AD00080C00F4000C00F408CC00F40A0C10F40FD
:103AE00004C10F40ACC10F400CC10F4084C00F4057
:103AF000CE930B24C4C00F40C8C10F4008ED00E0B6
:103B000070B5FCF77FFE0E4800F04AF8044604F05A
:103B10000E05022D0BD0042D02D00C2D0BD100E090
:103B200000BF08490848094A1268904704E008485D
:103B30000068804700E000BF00BFFCF779FE70BD61
:103B400000C0004024C0072080C907201CC00720F7
:103B500020C007200246002040F00100CB7833B19E
:103B6000012B06D0022B07D0032B08D108E000BFA1
:103B700009E040F0400006E040F0800003E000BFB4
:103B800040F0C00000BF00BF0B78012B01D140F016
:103B900002004B78012B01D140F0040010727047F5
:103BA0000146886840F2CF321040704770B5044635
:103BB0000E462548844203D101210820FCF76AFB08
:103BC000072020720020207200E02578207D10F070
:103BD000010FFAD1802084F8300000BF207D10F062
:103BE000200FFBD0002084F830006060207320623A
:103BF0002046316800F024FB207B00F080057079BE
:103C000030B1012806D0022807D003280BD107E0E5
:103C100000BF08E045F0010505E045F0020502E0BF
:103C200045F0030500BF00BF307908B145F0080535
:103C3000B07928B1012802D145F0040501E000BFA8
:103C400000BF00BF257370BD00C0004010B5002448
:103C5000072911D2DFE801F004060810100A0D0050
:103C6000012409E0022407E0042405E04FF48074F5
:103C700002E04FF4007400BF00BF012A03D1436883
:103C80002343436002E04368A343436010BDF0B5A3
:103C900003460C462746154600260BE0187D10F01B
:103CA000010F00D108E0184600F009F807F8010BF1
:103CB000761C6D1E002DF1D100BF3046F0BD0146CF
:103CC0000878704701707047012910D10F4A90425F
:103CD00006D190F8302042F0800280F8302014E0C5
:103CE00090F8302042F0800280F830200DE0074A42
:103CF000904205D190F83020002280F8302004E076
:103D000090F83020002280F83020704700000140F9
:103D100002E008C8121F08C1002AFAD17047704794
:103D2000002001E001C1121F002AFBD1704710B52D
:103D300000F03EFA10BD000000B58BB00AA8FCF7F9
:103D400085FC0AA8032100220592CDE906210890EE
:103D50000420C8210A22094BCDE90132CDE9031024
:103D600002200023064A07A100900948FDF7E8FA5F
:103D70000AA8FDF711FA00200BB000BDA8C107206A
:103D8000793F000073746172745F7461736B00003B
:103D9000E4C007202DE9F04180460C461746102F5D
:103DA00001D3102500E03D46002201210B48FFF71A
:103DB0004DFF002606E02168314418F8010000F0AC
:103DC00089F9761CAE42F6D3012211460348FFF76B
:103DD0003DFF206828442060BDE8F08100C000401D
:103DE00010B586B001208DF8120000208DF810006B
:103DF00002208DF8110000208DF813008DF81400BA
:103E000004A8FFF7CBFD03208DF8110004A8FFF7ED
:103E1000C5FD4FF4E130029003208DF80D00002025
:103E20008DF80C008DF80E0002A91F48FFF7BEFEAA
:103E300000208DF8060001208DF804008DF80500A3
:103E400002208DF8070001A91748FFF783FE012221
:103E500000211548FFF7FAFE002201211248FFF762
:103E6000F5FE01211048FFF72FFF05200121002852
:103E700007DACA06140E0D4A00F00F031B1FD454B4
:103E800003E0CA06130E0A4A135400BF052001219D
:103E9000814042094FF0E02303EB8202C2F8001197
:103EA00000BF06B010BD000000C0004018ED00E0EB
:103EB00000E400E0024A1060024A1160704700000E
:103EC0001CC0072020C00720F0B504460B4615464D
:103ED000194660000B4A102901D91039401C52F8CC
:103EE00020604FEA410C032707FA0CF7BE4342F863
:103EF000206052F820604F0005FA07F73E4342F871
:103F00002060F0BD00C0024030B50B460949012ACF
:103F100007D151F8204001259D402C4341F8204015
:103F200006E051F8204001259D40AC4341F8204077
:103F300030BD000068C00240F0B504460B4615468F
:103F4000194660000B4A102901D31039401C52F861
:103F500020604FEA410C032707FA0CF7BE4342F8F2
:103F6000206052F820604F0005FA07F73E4342F800
:103F70002060F0BD40C0024008B50A4800680A4908
:103F80000968B0FBF1F42046FDF7B4FE00F004FA36
:103F9000FFF7CDFE05E06A4600214FF47A70FDF789
:103FA000F3FDF8E700C00720004400002DE9FC47BE
:103FB0008246894655464C462068402801D3002059
:103FC00020602068C0F1400241192F48FFF75FFED2
:103FD0002168084420602068471E20680D280CD9FD
:103FE000002605E0A85D402801D1374604E0761C94
:103FF0002068401EB042F5D801E0BDE8FC8720688B
:10400000401EB84239D967B1002603E0F019285C98
:10401000A855761C2068C01BB042F7D82068C01B8A
:10402000206020680D2827D92068801E285C3B2846
:1040300027D12068401E285C212822D1D4F8008096
:10404000287905F80800697908F101002954A9794F
:10405000401C2954421C29460C48FCF751F9002009
:10406000206001A8009008F1030082B200230749F4
:104070000748FDF737FB04E0BFE701202060E85D5B
:10408000287000BFB9E7000000C00040ACC807209E
:10409000C8C4072070B505460C46E1B2284600F0BA
:1040A00001F870BD3EB504460D4602A801AB0022E2
:1040B000114600900648FCF76DFC2946204600F0AA
:1040C00013F802AA00210248FCF78CFD3EBD000057
:1040D000ECC8072010B5044621460248FFF7F2FD60
:1040E00010BD000000C000403EB505460C4622460B
:1040F00029460B48FCF704F90A48046000200A49E5
:104100000860084802680648FFF744FE02A801ABB1
:104110000022114600900548FCF732FF3EBD00002A
:1041200040C9072008C007200CC0072018C9072075
:1041300038B50C4800680C490968884209D20A4819
:10414000006808490968421A06490848FFF722FE34
:1041500006E06A464FF400410548FCF7E5FF0446D7
:1041600038BD00000CC0072008C0072040C9072048
:1041700018C9072008B56B46002205A10748FCF7BF
:10418000BFFE6A4606A10948FCF7C0FB08BD000057
:1041900073656E645F73656D0000000018C90720C9
:1041A00073656E645F6D757465780000ECC80720F8
:1041B00000B58BB00F491048FFF77CFEFFF7DAFF20
:1041C0000AA8032100220592CDE906210890462085
:1041D000C8210A22094BCDE90132CDE903100420A0
:1041E0000023074A07A100900A48FDF7A9F80BB081
:1041F00000BD000031410000AD3F00008CC507202C
:104200001942000074735F736572765F7461736B3B
:1042100000000000C8C407201FB510E001A802ABD1
:1042200003AA002100900846FDF770F90446BDF886
:10423000040020B9BDF80C102046FFF72BFFEDE776
:104240002DE9F04F8BB00746884600200990514871
:10425000874203D10620FCF763F981464FF0FF3B0C
:1042600000200790069000252E4601244CE00020F7
:10427000089040E00898204400FB08FC002001075B
:1042800041EA19114FEA09700022A0FB043E01FB2C
:1042900004E100FB02106246CDE900300023DDE9B5
:1042A0000001FBF749FFCDE9040104980390DDF814
:1042B00014A00398B0F1004F04D903984042039032
:1042C0000AF1010ABAF1000F02D0BAF5803F00D915
:1042D0000EE0039858450AD2DDF80CB0002655468A
:1042E000089807900694BBF1000F00D106E000BFCC
:1042F0000898401C08900898A042BBD300BFBBF1AF
:10430000000F00D102E0641C0F2CB0D900BF0021C7
:1043100085EA01007140084302D10BB0BDE8F08F7F
:104320004FEA1910069900FB01FC0846079908445A
:104330000021A0FB052301FB053100FB061003460D
:10434000CDE9002060460021FBF7F6FE02900298BE
:10435000804503D90298A8EB000B02E00298A0EB7D
:10436000080B64200BFB00F0B0FBF8FBBBF1030F64
:104370000DD2387B40F080003873002038710D205A
:104380003870387B20F0800038730120099009983C
:10439000C3E7000000C0004010B5FFF721FD10BDCD
:1043A00000000010060000004000000000010000B6
:1043B00000000000000000000000000000000000FD
:1043C00000000000000000000000000000010010DC
:1043D0008000000000020000C8000000800C000007
:1043E000000300101C0000000A000000800F0010F5
:1043F0000C000000800000000002000040000000EF
:10440000E80300000A000000801100100C0000000A
:104410008000000000020000110000008800000081
:10442000190000000A000000081400100C00000031
:104430008000000000020000110000008800000061
:1044400090160000010001017856341201010000AD
:10445000000000000000000000000000000000005C
:10446000000000000000000000000000000000004C
:104470000000000000000000000000002800040010
:10448000000000000000000000000000000000002C
:10449000000000000000000000000000000000001C
:1044A0000000000001002000010010000C001000BE
:1044B00000000000000000000000000000000000FC
:1044C00000000000000000000000000000000000EC
:1044D00000000000000000000000000001000000DB
:1044E0002C00010120000C0020002000040004002A
:1044F00000000000000000000000000000000000BC
:1045000000000000000000000000000000000000AB
:10451000000000000000000000000000000000009B
:104520000100000130000100000000000000000058
:10453000000000000000000000000000000000007B
:10454000000000000000000000000000000000006B
:104550000100010128000C0080010000040101019C
:104560000001000101000101C40008000100000079
:10457000000000000000000000000000000000003B
:10458000000000000000000000000000000000002B
:10459000000000000000000000000000000000001B
:1045A000000000000100340008005C763C050000BB
:1045B000E045000000C00720E4000000103D0000BE
:1045C000E04500000000001090160000203D0000B3
:1045D000C4460000E4C007207C0F0000203D00001E
:1045E00000D8B80500000000000000000000000036
:1045F00000000000000000000000000000000000BB
:1046000000000000000000000000000000000000AA
:10461000000000000000000000000000000000009A
:10462000000000000000000000000000000000008A
:10463000000000000000000000000000000000007A
:10464000000000000000000000000000000000006A
:10465000000000000000000000000000000000005A
:10466000000000000000000000000000000000004A
:10467000000000000000000000000000000000003A
:10468000000000000000000000000000000000002A
:10469000000000000000000000000000000000001A
:1046A000000000000000000000000000000000000A
:1046B00000000000000000000000000000000000FA
:0446C00000000000F6
:04000005000000CD2A
:00000001FF
